{
  "contractName": "ArtistMembers",
  "abi": [
    {
      "inputs": [],
      "stateMutability": "nonpayable",
      "type": "constructor"
    },
    {
      "anonymous": false,
      "inputs": [
        {
          "indexed": true,
          "internalType": "address",
          "name": "artistAddress",
          "type": "address"
        }
      ],
      "name": "ArtistAdd",
      "type": "event"
    },
    {
      "anonymous": false,
      "inputs": [
        {
          "indexed": true,
          "internalType": "address",
          "name": "previousOwner",
          "type": "address"
        },
        {
          "indexed": true,
          "internalType": "address",
          "name": "newOwner",
          "type": "address"
        }
      ],
      "name": "OwnershipTransferred",
      "type": "event"
    },
    {
      "inputs": [],
      "name": "owner",
      "outputs": [
        {
          "internalType": "address",
          "name": "",
          "type": "address"
        }
      ],
      "stateMutability": "view",
      "type": "function",
      "constant": true
    },
    {
      "inputs": [],
      "name": "renounceOwnership",
      "outputs": [],
      "stateMutability": "nonpayable",
      "type": "function"
    },
    {
      "inputs": [
        {
          "internalType": "address",
          "name": "newOwner",
          "type": "address"
        }
      ],
      "name": "transferOwnership",
      "outputs": [],
      "stateMutability": "nonpayable",
      "type": "function"
    },
    {
      "inputs": [
        {
          "internalType": "address",
          "name": "_address",
          "type": "address"
        },
        {
          "internalType": "string",
          "name": "_name",
          "type": "string"
        },
        {
          "internalType": "string",
          "name": "_iconURL",
          "type": "string"
        }
      ],
      "name": "addArtist",
      "outputs": [
        {
          "components": [
            {
              "internalType": "uint256",
              "name": "id",
              "type": "uint256"
            },
            {
              "internalType": "address",
              "name": "artistAddress",
              "type": "address"
            },
            {
              "internalType": "string",
              "name": "name",
              "type": "string"
            },
            {
              "internalType": "string",
              "name": "iconURL",
              "type": "string"
            }
          ],
          "internalType": "struct SLib.Artist",
          "name": "artist",
          "type": "tuple"
        }
      ],
      "stateMutability": "nonpayable",
      "type": "function"
    },
    {
      "inputs": [
        {
          "internalType": "address",
          "name": "_address",
          "type": "address"
        }
      ],
      "name": "checkIsArtistExist",
      "outputs": [
        {
          "internalType": "bool",
          "name": "",
          "type": "bool"
        }
      ],
      "stateMutability": "view",
      "type": "function",
      "constant": true
    },
    {
      "inputs": [],
      "name": "getArtistSize",
      "outputs": [
        {
          "internalType": "uint256",
          "name": "",
          "type": "uint256"
        }
      ],
      "stateMutability": "view",
      "type": "function",
      "constant": true
    },
    {
      "inputs": [
        {
          "internalType": "uint256",
          "name": "id",
          "type": "uint256"
        }
      ],
      "name": "getArtistById",
      "outputs": [
        {
          "components": [
            {
              "internalType": "uint256",
              "name": "id",
              "type": "uint256"
            },
            {
              "internalType": "address",
              "name": "artistAddress",
              "type": "address"
            },
            {
              "internalType": "string",
              "name": "name",
              "type": "string"
            },
            {
              "internalType": "string",
              "name": "iconURL",
              "type": "string"
            }
          ],
          "internalType": "struct SLib.Artist",
          "name": "artist",
          "type": "tuple"
        }
      ],
      "stateMutability": "view",
      "type": "function",
      "constant": true
    },
    {
      "inputs": [
        {
          "internalType": "address",
          "name": "_address",
          "type": "address"
        }
      ],
      "name": "getArtistByAddress",
      "outputs": [
        {
          "components": [
            {
              "internalType": "uint256",
              "name": "id",
              "type": "uint256"
            },
            {
              "internalType": "address",
              "name": "artistAddress",
              "type": "address"
            },
            {
              "internalType": "string",
              "name": "name",
              "type": "string"
            },
            {
              "internalType": "string",
              "name": "iconURL",
              "type": "string"
            }
          ],
          "internalType": "struct SLib.Artist",
          "name": "artist",
          "type": "tuple"
        }
      ],
      "stateMutability": "view",
      "type": "function",
      "constant": true
    },
    {
      "inputs": [],
      "name": "getAllArtists",
      "outputs": [
        {
          "components": [
            {
              "internalType": "uint256",
              "name": "id",
              "type": "uint256"
            },
            {
              "internalType": "address",
              "name": "artistAddress",
              "type": "address"
            },
            {
              "internalType": "string",
              "name": "name",
              "type": "string"
            },
            {
              "internalType": "string",
              "name": "iconURL",
              "type": "string"
            }
          ],
          "internalType": "struct SLib.Artist[]",
          "name": "",
          "type": "tuple[]"
        }
      ],
      "stateMutability": "view",
      "type": "function",
      "constant": true
    }
  ],
  "bytecode": "0x608060405234801561001057600080fd5b5061002d61002261003a60201b60201c565b61004260201b60201c565b6000600481905550610106565b600033905090565b60008060009054906101000a900473ffffffffffffffffffffffffffffffffffffffff169050816000806101000a81548173ffffffffffffffffffffffffffffffffffffffff021916908373ffffffffffffffffffffffffffffffffffffffff1602179055508173ffffffffffffffffffffffffffffffffffffffff168173ffffffffffffffffffffffffffffffffffffffff167f8be0079c531659141344cd1fd0a4f28419497f9722a3daafe3b4186f6b6457e060405160405180910390a35050565b6117d6806101156000396000f3fe608060405234801561001057600080fd5b50600436106100935760003560e01c80638da5cb5b116100665780638da5cb5b14610132578063aa316fad14610150578063ed9b8e7d14610180578063f2fde38b1461019e578063f803ace3146101ba57610093565b806341b65e7e14610098578063529b06d0146100c8578063715018a6146100f8578063827df9e214610102575b600080fd5b6100b260048036038101906100ad9190610fcc565b6101d8565b6040516100bf919061133e565b60405180910390f35b6100e260048036038101906100dd9190610f41565b6103f7565b6040516100ef919061133e565b60405180910390f35b61010061064e565b005b61011c60048036038101906101179190610f14565b6106d6565b604051610129919061133e565b60405180910390f35b61013a610969565b6040516101479190611266565b60405180910390f35b61016a60048036038101906101659190610f14565b610992565b60405161017791906112a3565b60405180910390f35b6101886109e8565b6040516101959190611360565b60405180910390f35b6101b860048036038101906101b39190610f14565b6109f2565b005b6101c2610aea565b6040516101cf9190611281565b60405180910390f35b6101e0610d99565b816000811180156101f357506004548111155b610232576040517f08c379a0000000000000000000000000000000000000000000000000000000008152600401610229906112de565b60405180910390fd5b60036001846102419190611437565b81548110610252576102516115ff565b5b9060005260206000209060040201604051806080016040529081600082015481526020016001820160009054906101000a900473ffffffffffffffffffffffffffffffffffffffff1673ffffffffffffffffffffffffffffffffffffffff1673ffffffffffffffffffffffffffffffffffffffff1681526020016002820180546102db906114f5565b80601f0160208091040260200160405190810160405280929190818152602001828054610307906114f5565b80156103545780601f1061032957610100808354040283529160200191610354565b820191906000526020600020905b81548152906001019060200180831161033757829003601f168201915b5050505050815260200160038201805461036d906114f5565b80601f0160208091040260200160405190810160405280929190818152602001828054610399906114f5565b80156103e65780601f106103bb576101008083540402835291602001916103e6565b820191906000526020600020905b8154815290600101906020018083116103c957829003601f168201915b505050505081525050915050919050565b6103ff610d99565b600160008573ffffffffffffffffffffffffffffffffffffffff1673ffffffffffffffffffffffffffffffffffffffff16815260200190815260200160002060009054906101000a900460ff161561048c576040517f08c379a00000000000000000000000000000000000000000000000000000000081526004016104839061131e565b60405180910390fd5b6004600081548092919061049f90611558565b919050555060018060008673ffffffffffffffffffffffffffffffffffffffff1673ffffffffffffffffffffffffffffffffffffffff16815260200190815260200160002060006101000a81548160ff0219169083151502179055506000604051806080016040528060045481526020018673ffffffffffffffffffffffffffffffffffffffff16815260200185815260200184815250905060038190806001815401808255809150506001900390600052602060002090600402016000909190919091506000820151816000015560208201518160010160006101000a81548173ffffffffffffffffffffffffffffffffffffffff021916908373ffffffffffffffffffffffffffffffffffffffff16021790555060408201518160020190805190602001906105d1929190610dd7565b5060608201518160030190805190602001906105ee929190610dd7565b50505060016004546106009190611437565b600260008773ffffffffffffffffffffffffffffffffffffffff1673ffffffffffffffffffffffffffffffffffffffff16815260200190815260200160002081905550809150509392505050565b610656610ccd565b73ffffffffffffffffffffffffffffffffffffffff16610674610969565b73ffffffffffffffffffffffffffffffffffffffff16146106ca576040517f08c379a00000000000000000000000000000000000000000000000000000000081526004016106c1906112fe565b60405180910390fd5b6106d46000610cd5565b565b6106de610d99565b81600160008273ffffffffffffffffffffffffffffffffffffffff1673ffffffffffffffffffffffffffffffffffffffff16815260200190815260200160002060009054906101000a900460ff1661076b576040517f08c379a0000000000000000000000000000000000000000000000000000000008152600401610762906112de565b60405180910390fd5b6000600260008573ffffffffffffffffffffffffffffffffffffffff1673ffffffffffffffffffffffffffffffffffffffff168152602001908152602001600020549050600381815481106107c3576107c26115ff565b5b9060005260206000209060040201604051806080016040529081600082015481526020016001820160009054906101000a900473ffffffffffffffffffffffffffffffffffffffff1673ffffffffffffffffffffffffffffffffffffffff1673ffffffffffffffffffffffffffffffffffffffff16815260200160028201805461084c906114f5565b80601f0160208091040260200160405190810160405280929190818152602001828054610878906114f5565b80156108c55780601f1061089a576101008083540402835291602001916108c5565b820191906000526020600020905b8154815290600101906020018083116108a857829003601f168201915b505050505081526020016003820180546108de906114f5565b80601f016020809104026020016040519081016040528092919081815260200182805461090a906114f5565b80156109575780601f1061092c57610100808354040283529160200191610957565b820191906000526020600020905b81548152906001019060200180831161093a57829003601f168201915b50505050508152505092505050919050565b60008060009054906101000a900473ffffffffffffffffffffffffffffffffffffffff16905090565b6000600160008373ffffffffffffffffffffffffffffffffffffffff1673ffffffffffffffffffffffffffffffffffffffff16815260200190815260200160002060009054906101000a900460ff169050919050565b6000600454905090565b6109fa610ccd565b73ffffffffffffffffffffffffffffffffffffffff16610a18610969565b73ffffffffffffffffffffffffffffffffffffffff1614610a6e576040517f08c379a0000000000000000000000000000000000000000000000000000000008152600401610a65906112fe565b60405180910390fd5b600073ffffffffffffffffffffffffffffffffffffffff168173ffffffffffffffffffffffffffffffffffffffff161415610ade576040517f08c379a0000000000000000000000000000000000000000000000000000000008152600401610ad5906112be565b60405180910390fd5b610ae781610cd5565b50565b60606003805480602002602001604051908101604052809291908181526020016000905b82821015610cc45783829060005260206000209060040201604051806080016040529081600082015481526020016001820160009054906101000a900473ffffffffffffffffffffffffffffffffffffffff1673ffffffffffffffffffffffffffffffffffffffff1673ffffffffffffffffffffffffffffffffffffffff168152602001600282018054610ba1906114f5565b80601f0160208091040260200160405190810160405280929190818152602001828054610bcd906114f5565b8015610c1a5780601f10610bef57610100808354040283529160200191610c1a565b820191906000526020600020905b815481529060010190602001808311610bfd57829003601f168201915b50505050508152602001600382018054610c33906114f5565b80601f0160208091040260200160405190810160405280929190818152602001828054610c5f906114f5565b8015610cac5780601f10610c8157610100808354040283529160200191610cac565b820191906000526020600020905b815481529060010190602001808311610c8f57829003601f168201915b50505050508152505081526020019060010190610b0e565b50505050905090565b600033905090565b60008060009054906101000a900473ffffffffffffffffffffffffffffffffffffffff169050816000806101000a81548173ffffffffffffffffffffffffffffffffffffffff021916908373ffffffffffffffffffffffffffffffffffffffff1602179055508173ffffffffffffffffffffffffffffffffffffffff168173ffffffffffffffffffffffffffffffffffffffff167f8be0079c531659141344cd1fd0a4f28419497f9722a3daafe3b4186f6b6457e060405160405180910390a35050565b604051806080016040528060008152602001600073ffffffffffffffffffffffffffffffffffffffff16815260200160608152602001606081525090565b828054610de3906114f5565b90600052602060002090601f016020900481019282610e055760008555610e4c565b82601f10610e1e57805160ff1916838001178555610e4c565b82800160010185558215610e4c579182015b82811115610e4b578251825591602001919060010190610e30565b5b509050610e599190610e5d565b5090565b5b80821115610e76576000816000905550600101610e5e565b5090565b6000610e8d610e88846113a0565b61137b565b905082815260208101848484011115610ea957610ea8611662565b5b610eb48482856114b3565b509392505050565b600081359050610ecb81611772565b92915050565b600082601f830112610ee657610ee561165d565b5b8135610ef6848260208601610e7a565b91505092915050565b600081359050610f0e81611789565b92915050565b600060208284031215610f2a57610f2961166c565b5b6000610f3884828501610ebc565b91505092915050565b600080600060608486031215610f5a57610f5961166c565b5b6000610f6886828701610ebc565b935050602084013567ffffffffffffffff811115610f8957610f88611667565b5b610f9586828701610ed1565b925050604084013567ffffffffffffffff811115610fb657610fb5611667565b5b610fc286828701610ed1565b9150509250925092565b600060208284031215610fe257610fe161166c565b5b6000610ff084828501610eff565b91505092915050565b60006110058383611174565b905092915050565b6110168161146b565b82525050565b6110258161146b565b82525050565b6000611036826113e1565b6110408185611404565b935083602082028501611052856113d1565b8060005b8581101561108e578484038952815161106f8582610ff9565b945061107a836113f7565b925060208a01995050600181019050611056565b50829750879550505050505092915050565b6110a98161147d565b82525050565b60006110ba826113ec565b6110c48185611415565b93506110d48185602086016114c2565b6110dd81611671565b840191505092915050565b60006110f5602683611426565b915061110082611682565b604082019050919050565b6000611118602483611426565b9150611123826116d1565b604082019050919050565b600061113b602083611426565b915061114682611720565b602082019050919050565b600061115e601883611426565b915061116982611749565b602082019050919050565b600060808301600083015161118c6000860182611248565b50602083015161119f602086018261100d565b50604083015184820360408601526111b782826110af565b915050606083015184820360608601526111d182826110af565b9150508091505092915050565b60006080830160008301516111f66000860182611248565b506020830151611209602086018261100d565b506040830151848203604086015261122182826110af565b9150506060830151848203606086015261123b82826110af565b9150508091505092915050565b611251816114a9565b82525050565b611260816114a9565b82525050565b600060208201905061127b600083018461101c565b92915050565b6000602082019050818103600083015261129b818461102b565b905092915050565b60006020820190506112b860008301846110a0565b92915050565b600060208201905081810360008301526112d7816110e8565b9050919050565b600060208201905081810360008301526112f78161110b565b9050919050565b600060208201905081810360008301526113178161112e565b9050919050565b6000602082019050818103600083015261133781611151565b9050919050565b6000602082019050818103600083015261135881846111de565b905092915050565b60006020820190506113756000830184611257565b92915050565b6000611385611396565b90506113918282611527565b919050565b6000604051905090565b600067ffffffffffffffff8211156113bb576113ba61162e565b5b6113c482611671565b9050602081019050919050565b6000819050602082019050919050565b600081519050919050565b600081519050919050565b6000602082019050919050565b600082825260208201905092915050565b600082825260208201905092915050565b600082825260208201905092915050565b6000611442826114a9565b915061144d836114a9565b9250828210156114605761145f6115a1565b5b828203905092915050565b600061147682611489565b9050919050565b60008115159050919050565b600073ffffffffffffffffffffffffffffffffffffffff82169050919050565b6000819050919050565b82818337600083830152505050565b60005b838110156114e05780820151818401526020810190506114c5565b838111156114ef576000848401525b50505050565b6000600282049050600182168061150d57607f821691505b60208210811415611521576115206115d0565b5b50919050565b61153082611671565b810181811067ffffffffffffffff8211171561154f5761154e61162e565b5b80604052505050565b6000611563826114a9565b91507fffffffffffffffffffffffffffffffffffffffffffffffffffffffffffffffff821415611596576115956115a1565b5b600182019050919050565b7f4e487b7100000000000000000000000000000000000000000000000000000000600052601160045260246000fd5b7f4e487b7100000000000000000000000000000000000000000000000000000000600052602260045260246000fd5b7f4e487b7100000000000000000000000000000000000000000000000000000000600052603260045260246000fd5b7f4e487b7100000000000000000000000000000000000000000000000000000000600052604160045260246000fd5b600080fd5b600080fd5b600080fd5b600080fd5b6000601f19601f8301169050919050565b7f4f776e61626c653a206e6577206f776e657220697320746865207a65726f206160008201527f6464726573730000000000000000000000000000000000000000000000000000602082015250565b7f617274697374204964206d757374206c657373207468616e206172746973744360008201527f6f756e7400000000000000000000000000000000000000000000000000000000602082015250565b7f4f776e61626c653a2063616c6c6572206973206e6f7420746865206f776e6572600082015250565b7f43616c6c65722069732061727469737420616c72656164790000000000000000600082015250565b61177b8161146b565b811461178657600080fd5b50565b611792816114a9565b811461179d57600080fd5b5056fea2646970667358221220af3b4f33bdcac5241c1131e5a000bd65641980a26e55722b4fe3c037cdd4ae7764736f6c63430008050033",
  "immutableReferences": {},
  "source": "// SPDX-License-Identifier: UNLICENSED\n\npragma solidity ^0.8.5;\nimport \"@openzeppelin/contracts/token/ERC20/ERC20.sol\";\nimport \"@openzeppelin/contracts/access/Ownable.sol\";\nimport \"./slib.sol\";\nimport \"./fundRasingShareToken.sol\";\nimport \"./platformToken.sol\";\n\ncontract ArtistMembers is Ownable{\n\n    mapping(address => bool) private artistExist; //check projectId return bool\n    mapping(address => uint) private artistIdIndex; //check projectId return bool\n    SLib.Artist[] private artistList;\n    uint private artistCount;\n\n    modifier isArtistIdExist(uint id) {\n        require(id > 0 && id <= artistCount, \"artist Id must less than artistCount\");\n        _;\n    }\n\n    modifier isArtistAddressExist(address _address) {\n        require(artistExist[_address], \"artist Id must less than artistCount\");\n        _;\n    }\n\n    event ArtistAdd(address indexed artistAddress);\n\n    constructor (){\n        artistCount = 0;\n    }\n\n    function addArtist (address _address, string memory _name, string memory _iconURL) external  returns (SLib.Artist memory artist){\n        require(!artistExist[_address], \"Caller is artist already\");\n        artistCount ++;\n        artistExist[_address] = true;\n        SLib.Artist memory newArtist = SLib.Artist({\n            id:artistCount,\n            artistAddress:_address,\n            name:_name,\n            iconURL:_iconURL\n        });\n        artistList.push(newArtist);\n        artistIdIndex[_address] = artistCount - 1;\n\n        // omit event\n\n        return newArtist;\n    }\n\n    function checkIsArtistExist(address _address) public view returns (bool) {\n        return artistExist[_address];\n    }\n\n    function getArtistSize() public view returns (uint) {\n        return artistCount;\n    }\n\n    function getArtistById(uint id) isArtistIdExist(id) public view returns (SLib.Artist memory artist){\n        return artistList[id - 1];\n    }\n\n    function getArtistByAddress(address _address) isArtistAddressExist(_address) public view returns (SLib.Artist memory artist){\n        uint artistIndex = artistIdIndex[_address];\n        return artistList[artistIndex];\n    }\n\n    function getAllArtists ()public view returns (SLib.Artist [] memory){\n        return artistList;\n    }\n}\n\n\n\ncontract ArtProjects is Ownable{\n\n    mapping(uint => bool) private projectExist; //check projectId return bool\n    SLib.Project[] private projectList;\n    uint private projectCount = 0;\n    mapping(address => uint[]) artistProjectList;\n\n    // projectId -> investor address -> invest amount\n    mapping(uint => mapping(address => uint)) projectAddressFundAmount;\n    mapping(uint => address[] ) projectFunderList;\n    mapping(address => uint[]) investerFundedProjectList;\n    mapping(uint => mapping(address => bool)) projectShareNFTClaimed;\n\n    modifier isProjectIdExist(uint id) {\n        require(id > 0 && id <= projectCount, \"project Id must less than projectCount\");\n        _;\n    }\n\n    constructor(){\n\n    }\n\n    function addProject(address _artistAddress, string memory _name, string memory _description, uint _targetFundingAmount) external {\n        \n        projectCount ++;\n        SLib.Project memory newProject = SLib.Project({\n            id:projectCount,\n            artistAddress: _artistAddress,\n            name:_name,\n            description:_description,\n            targetFundingAmount:_targetFundingAmount,\n            currentFundingAmount: 0,\n            totalFunder:0,\n            isOpen:true,\n            dataURL:\"\"\n        });\n        projectList.push(newProject);\n        artistProjectList[_artistAddress].push(newProject.id);\n        projectExist[projectCount] = true;\n    }\n\n    function addFunderAmount(uint projectId, address _investorAddress, uint amount) isProjectIdExist(projectId) external {\n        SLib.Project storage project = projectList[projectId - 1];\n\n        // block if not open\n        require(project.isOpen, \"Project fund rasing is closed\") ;\n\n        project.currentFundingAmount += amount;\n\n        // add new investor record\n        if(projectAddressFundAmount[projectId][_investorAddress] == 0){\n            // if no invest record, add to project list/ investor list\n            project.totalFunder += 1; //add a new funder\n            projectFunderList[projectId].push(_investorAddress);\n            investerFundedProjectList[_investorAddress].push(projectId);\n        }\n        // add fund amount\n        projectAddressFundAmount[projectId][_investorAddress] += amount;\n    }\n\n    function endProject(address _address, uint projectId, string memory dataURL)isProjectIdExist(projectId) external {\n        SLib.Project storage project = projectList[projectId - 1];\n        require(project.isOpen, \"Project fund rasing is closed\") ;\n        require(project.artistAddress == _address, \"Only project owner can close\") ;\n        project.isOpen = false;\n        project.dataURL = dataURL;\n    }\n\n    function checkIsAddressAbleToMint(uint projectId, address _address) isProjectIdExist(projectId) public view  returns (bool){\n        SLib.Project memory project = getProjectById(projectId);\n        uint fundAmount = projectAddressFundAmount[projectId][_address];\n        if(fundAmount <= 0){\n            return false;\n        }\n        if(project.isOpen){\n            return false;\n        }\n        if(projectShareNFTClaimed[projectId][_address]){\n            return false;\n        }\n        return true;\n    }\n\n    function getAddressShareInProject(uint projectId, address _address) isProjectIdExist(projectId) public view  returns (uint){\n        SLib.Project memory project = getProjectById(projectId);\n        uint fundAmount = projectAddressFundAmount[projectId][_address];\n        if(fundAmount <= 0){\n            return 0;\n        }\n        uint share = fundAmount / project.currentFundingAmount;\n        return share;\n    }\n\n    function setProjectShareNFTClaimed (uint projectId, address _address) isProjectIdExist(projectId) public {\n        require(checkIsAddressAbleToMint(projectId, _address), \"Address Not able to claim share NFT\");\n        projectShareNFTClaimed[projectId][_address] = true;\n    }\n\n    function getProjectFunderListByProjectId (uint projectId) isProjectIdExist(projectId) public view returns (address [] memory){\n        return projectFunderList[projectId];\n    }\n\n    function getFundedProjectByAddress (address _address)public view returns (uint [] memory){\n        return investerFundedProjectList[_address];\n    }\n\n    function getFundAmountsByProjectId (uint projectId)isProjectIdExist(projectId) public view returns (SLib.ProjectAddressFund [] memory) {\n        address [] memory funderList = projectFunderList[projectId];\n        SLib.ProjectAddressFund [] memory results = new SLib.ProjectAddressFund[](funderList.length);\n        for(uint i = 0; i < funderList.length; i++){\n            uint fundAmount = projectAddressFundAmount[projectId][ funderList[i] ];\n            results[i] = SLib.ProjectAddressFund({\n                funderAddress: funderList[i],\n                amount:fundAmount\n            });\n        }\n        return results;\n    }\n\n    function getAllProjects ()public view returns (SLib.Project [] memory){\n        return projectList;\n    }\n\n    function checkIsProjectExist(uint id) public view returns (bool) {\n        return projectExist[id];\n    }\n\n    function getProjectSize() public view returns (uint) {\n        return projectCount;\n    }\n\n    function getProjectById(uint id) isProjectIdExist(id) public view returns (SLib.Project memory project){\n        return projectList[id - 1];\n    }\n}\n\n\ncontract MainGame is Ownable{\n\n    ArtProjects artProjects;\n    ArtistMembers artistMembers;\n    PlatformToken platformToken;\n    FundRasingShareToken fundRasingShareToken;\n\n    constructor(address tokenAddress, address _artProjectsAddress, address _artistMembersAddress, address _fundRasingShareTokenAddress){\n        artProjects = ArtProjects(_artProjectsAddress);\n        artistMembers = ArtistMembers(_artistMembersAddress);\n        platformToken = PlatformToken(tokenAddress);\n        fundRasingShareToken = FundRasingShareToken(_fundRasingShareTokenAddress);\n    }\n\n    function registerAsArtist(string memory _name, string memory _iconURL) public {\n        artistMembers.addArtist(msg.sender, _name, _iconURL);\n        // address _address, string memory _name, string memory _iconURL\n    }\n\n    function kickStartProject(string memory _name, string memory _description, uint _targetFundingAmount) public{\n        require(artistMembers.checkIsArtistExist(msg.sender));\n        // address _artistAddress, string memory _name, string memory _description, uint _targetFundingAmount\n        artProjects.addProject(msg.sender, _name, _description, _targetFundingAmount);\n    }\n\n    function addFundToProject (uint projectId, uint amount) public {\n        artProjects.addFunderAmount(projectId, msg.sender, amount);\n        // address sender,\n        // address recipient,\n        // uint256 amount\n        platformToken.transferFrom (msg.sender, address(this), amount);\n    }\n\n    function endProject (uint projectId, string memory dataURL) public {\n        artProjects.endProject(msg.sender, projectId, dataURL);\n    }\n\n    function claimProjectShareNFT(uint projectId) public{\n        artProjects.setProjectShareNFTClaimed(projectId, msg.sender);\n        uint share = artProjects.getAddressShareInProject(projectId, msg.sender);\n        fundRasingShareToken.safeMintProjectShareNFT(msg.sender, projectId, share);\n    }\n\n\n}\n",
  "sourcePath": "/home/jacky/project/hackathon/contracts/artProject.sol",
  "compiler": {
    "name": "solc",
    "version": "0.8.5+commit.a4f2e591.Emscripten.clang"
  },
  "schemaVersion": "3.4.4",
  "updatedAt": "2022-01-16T02:44:15.463Z",
  "networkType": "ethereum",
  "devdoc": {
    "kind": "dev",
    "methods": {
      "owner()": {
        "details": "Returns the address of the current owner."
      },
      "renounceOwnership()": {
        "details": "Leaves the contract without owner. It will not be possible to call `onlyOwner` functions anymore. Can only be called by the current owner. NOTE: Renouncing ownership will leave the contract without an owner, thereby removing any functionality that is only available to the owner."
      },
      "transferOwnership(address)": {
        "details": "Transfers ownership of the contract to a new account (`newOwner`). Can only be called by the current owner."
      }
    },
    "version": 1
  },
  "userdoc": {
    "kind": "user",
    "methods": {},
    "version": 1
  }
}