{
  "contractName": "FundRasingShareToken",
  "abi": [
    {
      "inputs": [],
      "stateMutability": "nonpayable",
      "type": "constructor"
    },
    {
      "anonymous": false,
      "inputs": [
        {
          "indexed": true,
          "internalType": "address",
          "name": "owner",
          "type": "address"
        },
        {
          "indexed": true,
          "internalType": "address",
          "name": "approved",
          "type": "address"
        },
        {
          "indexed": true,
          "internalType": "uint256",
          "name": "tokenId",
          "type": "uint256"
        }
      ],
      "name": "Approval",
      "type": "event"
    },
    {
      "anonymous": false,
      "inputs": [
        {
          "indexed": true,
          "internalType": "address",
          "name": "owner",
          "type": "address"
        },
        {
          "indexed": true,
          "internalType": "address",
          "name": "operator",
          "type": "address"
        },
        {
          "indexed": false,
          "internalType": "bool",
          "name": "approved",
          "type": "bool"
        }
      ],
      "name": "ApprovalForAll",
      "type": "event"
    },
    {
      "anonymous": false,
      "inputs": [
        {
          "indexed": true,
          "internalType": "address",
          "name": "previousOwner",
          "type": "address"
        },
        {
          "indexed": true,
          "internalType": "address",
          "name": "newOwner",
          "type": "address"
        }
      ],
      "name": "OwnershipTransferred",
      "type": "event"
    },
    {
      "anonymous": false,
      "inputs": [
        {
          "indexed": true,
          "internalType": "address",
          "name": "from",
          "type": "address"
        },
        {
          "indexed": true,
          "internalType": "address",
          "name": "to",
          "type": "address"
        },
        {
          "indexed": true,
          "internalType": "uint256",
          "name": "tokenId",
          "type": "uint256"
        }
      ],
      "name": "Transfer",
      "type": "event"
    },
    {
      "inputs": [
        {
          "internalType": "address",
          "name": "to",
          "type": "address"
        },
        {
          "internalType": "uint256",
          "name": "tokenId",
          "type": "uint256"
        }
      ],
      "name": "approve",
      "outputs": [],
      "stateMutability": "nonpayable",
      "type": "function"
    },
    {
      "inputs": [
        {
          "internalType": "address",
          "name": "owner",
          "type": "address"
        }
      ],
      "name": "balanceOf",
      "outputs": [
        {
          "internalType": "uint256",
          "name": "",
          "type": "uint256"
        }
      ],
      "stateMutability": "view",
      "type": "function",
      "constant": true
    },
    {
      "inputs": [
        {
          "internalType": "uint256",
          "name": "tokenId",
          "type": "uint256"
        }
      ],
      "name": "getApproved",
      "outputs": [
        {
          "internalType": "address",
          "name": "",
          "type": "address"
        }
      ],
      "stateMutability": "view",
      "type": "function",
      "constant": true
    },
    {
      "inputs": [
        {
          "internalType": "address",
          "name": "owner",
          "type": "address"
        },
        {
          "internalType": "address",
          "name": "operator",
          "type": "address"
        }
      ],
      "name": "isApprovedForAll",
      "outputs": [
        {
          "internalType": "bool",
          "name": "",
          "type": "bool"
        }
      ],
      "stateMutability": "view",
      "type": "function",
      "constant": true
    },
    {
      "inputs": [],
      "name": "name",
      "outputs": [
        {
          "internalType": "string",
          "name": "",
          "type": "string"
        }
      ],
      "stateMutability": "view",
      "type": "function",
      "constant": true
    },
    {
      "inputs": [],
      "name": "owner",
      "outputs": [
        {
          "internalType": "address",
          "name": "",
          "type": "address"
        }
      ],
      "stateMutability": "view",
      "type": "function",
      "constant": true
    },
    {
      "inputs": [
        {
          "internalType": "uint256",
          "name": "tokenId",
          "type": "uint256"
        }
      ],
      "name": "ownerOf",
      "outputs": [
        {
          "internalType": "address",
          "name": "",
          "type": "address"
        }
      ],
      "stateMutability": "view",
      "type": "function",
      "constant": true
    },
    {
      "inputs": [],
      "name": "renounceOwnership",
      "outputs": [],
      "stateMutability": "nonpayable",
      "type": "function"
    },
    {
      "inputs": [
        {
          "internalType": "address",
          "name": "from",
          "type": "address"
        },
        {
          "internalType": "address",
          "name": "to",
          "type": "address"
        },
        {
          "internalType": "uint256",
          "name": "tokenId",
          "type": "uint256"
        }
      ],
      "name": "safeTransferFrom",
      "outputs": [],
      "stateMutability": "nonpayable",
      "type": "function"
    },
    {
      "inputs": [
        {
          "internalType": "address",
          "name": "from",
          "type": "address"
        },
        {
          "internalType": "address",
          "name": "to",
          "type": "address"
        },
        {
          "internalType": "uint256",
          "name": "tokenId",
          "type": "uint256"
        },
        {
          "internalType": "bytes",
          "name": "_data",
          "type": "bytes"
        }
      ],
      "name": "safeTransferFrom",
      "outputs": [],
      "stateMutability": "nonpayable",
      "type": "function"
    },
    {
      "inputs": [
        {
          "internalType": "address",
          "name": "operator",
          "type": "address"
        },
        {
          "internalType": "bool",
          "name": "approved",
          "type": "bool"
        }
      ],
      "name": "setApprovalForAll",
      "outputs": [],
      "stateMutability": "nonpayable",
      "type": "function"
    },
    {
      "inputs": [
        {
          "internalType": "bytes4",
          "name": "interfaceId",
          "type": "bytes4"
        }
      ],
      "name": "supportsInterface",
      "outputs": [
        {
          "internalType": "bool",
          "name": "",
          "type": "bool"
        }
      ],
      "stateMutability": "view",
      "type": "function",
      "constant": true
    },
    {
      "inputs": [],
      "name": "symbol",
      "outputs": [
        {
          "internalType": "string",
          "name": "",
          "type": "string"
        }
      ],
      "stateMutability": "view",
      "type": "function",
      "constant": true
    },
    {
      "inputs": [
        {
          "internalType": "uint256",
          "name": "tokenId",
          "type": "uint256"
        }
      ],
      "name": "tokenURI",
      "outputs": [
        {
          "internalType": "string",
          "name": "",
          "type": "string"
        }
      ],
      "stateMutability": "view",
      "type": "function",
      "constant": true
    },
    {
      "inputs": [
        {
          "internalType": "address",
          "name": "from",
          "type": "address"
        },
        {
          "internalType": "address",
          "name": "to",
          "type": "address"
        },
        {
          "internalType": "uint256",
          "name": "tokenId",
          "type": "uint256"
        }
      ],
      "name": "transferFrom",
      "outputs": [],
      "stateMutability": "nonpayable",
      "type": "function"
    },
    {
      "inputs": [
        {
          "internalType": "address",
          "name": "newOwner",
          "type": "address"
        }
      ],
      "name": "transferOwnership",
      "outputs": [],
      "stateMutability": "nonpayable",
      "type": "function"
    },
    {
      "inputs": [
        {
          "internalType": "address",
          "name": "to",
          "type": "address"
        },
        {
          "internalType": "uint256",
          "name": "_projectId",
          "type": "uint256"
        },
        {
          "internalType": "uint256",
          "name": "_share",
          "type": "uint256"
        }
      ],
      "name": "safeMintProjectShareNFT",
      "outputs": [],
      "stateMutability": "nonpayable",
      "type": "function"
    },
    {
      "inputs": [
        {
          "internalType": "uint256",
          "name": "tokenId",
          "type": "uint256"
        }
      ],
      "name": "getMetadataByTokenId",
      "outputs": [
        {
          "components": [
            {
              "internalType": "uint256",
              "name": "projectId",
              "type": "uint256"
            },
            {
              "internalType": "uint256",
              "name": "share",
              "type": "uint256"
            }
          ],
          "internalType": "struct SLib.ProjectShare",
          "name": "",
          "type": "tuple"
        }
      ],
      "stateMutability": "view",
      "type": "function",
      "constant": true
    },
    {
      "inputs": [
        {
          "internalType": "address",
          "name": "_address",
          "type": "address"
        }
      ],
      "name": "getOwnedToken",
      "outputs": [
        {
          "internalType": "uint256[]",
          "name": "",
          "type": "uint256[]"
        }
      ],
      "stateMutability": "view",
      "type": "function",
      "constant": true
    },
    {
      "inputs": [
        {
          "internalType": "address",
          "name": "_address",
          "type": "address"
        }
      ],
      "name": "getAddressTokensWithMetadata",
      "outputs": [
        {
          "components": [
            {
              "internalType": "uint256",
              "name": "projectId",
              "type": "uint256"
            },
            {
              "internalType": "uint256",
              "name": "share",
              "type": "uint256"
            }
          ],
          "internalType": "struct SLib.ProjectShare[]",
          "name": "",
          "type": "tuple[]"
        }
      ],
      "stateMutability": "view",
      "type": "function",
      "constant": true
    }
  ],
  "bytecode": "0x60806040523480156200001157600080fd5b506040518060400160405280601481526020017f46756e64526173696e675368617265546f6b656e0000000000000000000000008152506040518060400160405280600381526020017f4d544b0000000000000000000000000000000000000000000000000000000000815250816000908051906020019062000096929190620001d3565b508060019080519060200190620000af929190620001d3565b505050620000d2620000c6620000ef60201b60201c565b620000f760201b60201c565b620000e96007620001bd60201b620010761760201c565b620002e8565b600033905090565b6000600660009054906101000a900473ffffffffffffffffffffffffffffffffffffffff16905081600660006101000a81548173ffffffffffffffffffffffffffffffffffffffff021916908373ffffffffffffffffffffffffffffffffffffffff1602179055508173ffffffffffffffffffffffffffffffffffffffff168173ffffffffffffffffffffffffffffffffffffffff167f8be0079c531659141344cd1fd0a4f28419497f9722a3daafe3b4186f6b6457e060405160405180910390a35050565b6001816000016000828254019250508190555050565b828054620001e19062000283565b90600052602060002090601f01602090048101928262000205576000855562000251565b82601f106200022057805160ff191683800117855562000251565b8280016001018555821562000251579182015b828111156200025057825182559160200191906001019062000233565b5b50905062000260919062000264565b5090565b5b808211156200027f57600081600090555060010162000265565b5090565b600060028204905060018216806200029c57607f821691505b60208210811415620002b357620002b2620002b9565b5b50919050565b7f4e487b7100000000000000000000000000000000000000000000000000000000600052602260045260246000fd5b61325280620002f86000396000f3fe608060405234801561001057600080fd5b506004361061012c5760003560e01c8063715018a6116100ad578063ad98f5c411610071578063ad98f5c414610341578063b88d4fde14610371578063c87b56dd1461038d578063e985e9c5146103bd578063f2fde38b146103ed5761012c565b8063715018a6146102c35780638517b410146102cd5780638da5cb5b146102e957806395d89b4114610307578063a22cb465146103255761012c565b806323b872dd116100f457806323b872dd146101fb57806342842e0e146102175780636352211e14610233578063650de98b1461026357806370a08231146102935761012c565b806301ffc9a71461013157806306fdde0314610161578063081812fc1461017f578063095ea7b3146101af578063227c53ae146101cb575b600080fd5b61014b60048036038101906101469190612071565b610409565b6040516101589190612643565b60405180910390f35b6101696104eb565b604051610176919061265e565b60405180910390f35b610199600480360381019061019491906120cb565b61057d565b6040516101a69190612598565b60405180910390f35b6101c960048036038101906101c49190611fde565b610602565b005b6101e560048036038101906101e091906120cb565b61071a565b6040516101f291906128a0565b60405180910390f35b61021560048036038101906102109190611ec8565b6107b2565b005b610231600480360381019061022c9190611ec8565b610812565b005b61024d600480360381019061024891906120cb565b610832565b60405161025a9190612598565b60405180910390f35b61027d60048036038101906102789190611e5b565b6108e4565b60405161028a9190612621565b60405180910390f35b6102ad60048036038101906102a89190611e5b565b61097b565b6040516102ba91906128bb565b60405180910390f35b6102cb610a33565b005b6102e760048036038101906102e2919061201e565b610abb565b005b6102f1610b8e565b6040516102fe9190612598565b60405180910390f35b61030f610bb8565b60405161031c919061265e565b60405180910390f35b61033f600480360381019061033a9190611f9e565b610c4a565b005b61035b60048036038101906103569190611e5b565b610c60565b60405161036891906125ff565b60405180910390f35b61038b60048036038101906103869190611f1b565b610de1565b005b6103a760048036038101906103a291906120cb565b610e43565b6040516103b4919061265e565b60405180910390f35b6103d760048036038101906103d29190611e88565b610eea565b6040516103e49190612643565b60405180910390f35b61040760048036038101906104029190611e5b565b610f7e565b005b60007f80ac58cd000000000000000000000000000000000000000000000000000000007bffffffffffffffffffffffffffffffffffffffffffffffffffffffff1916827bffffffffffffffffffffffffffffffffffffffffffffffffffffffff191614806104d457507f5b5e139f000000000000000000000000000000000000000000000000000000007bffffffffffffffffffffffffffffffffffffffffffffffffffffffff1916827bffffffffffffffffffffffffffffffffffffffffffffffffffffffff1916145b806104e457506104e38261108c565b5b9050919050565b6060600080546104fa90612b52565b80601f016020809104026020016040519081016040528092919081815260200182805461052690612b52565b80156105735780601f1061054857610100808354040283529160200191610573565b820191906000526020600020905b81548152906001019060200180831161055657829003601f168201915b5050505050905090565b6000610588826110f6565b6105c7576040517f08c379a00000000000000000000000000000000000000000000000000000000081526004016105be906127e0565b60405180910390fd5b6004600083815260200190815260200160002060009054906101000a900473ffffffffffffffffffffffffffffffffffffffff169050919050565b600061060d82610832565b90508073ffffffffffffffffffffffffffffffffffffffff168373ffffffffffffffffffffffffffffffffffffffff16141561067e576040517f08c379a000000000000000000000000000000000000000000000000000000000815260040161067590612860565b60405180910390fd5b8073ffffffffffffffffffffffffffffffffffffffff1661069d611162565b73ffffffffffffffffffffffffffffffffffffffff1614806106cc57506106cb816106c6611162565b610eea565b5b61070b576040517f08c379a000000000000000000000000000000000000000000000000000000000815260040161070290612760565b60405180910390fd5b610715838361116a565b505050565b610722611d68565b60008211801561073a57506107376007611223565b82105b610779576040517f08c379a0000000000000000000000000000000000000000000000000000000008152600401610770906126e0565b60405180910390fd5b60086000838152602001908152602001600020604051806040016040529081600082015481526020016001820154815250509050919050565b6107c36107bd611162565b82611231565b610802576040517f08c379a00000000000000000000000000000000000000000000000000000000081526004016107f990612880565b60405180910390fd5b61080d83838361130f565b505050565b61082d83838360405180602001604052806000815250610de1565b505050565b6000806002600084815260200190815260200160002060009054906101000a900473ffffffffffffffffffffffffffffffffffffffff169050600073ffffffffffffffffffffffffffffffffffffffff168173ffffffffffffffffffffffffffffffffffffffff1614156108db576040517f08c379a00000000000000000000000000000000000000000000000000000000081526004016108d2906127a0565b60405180910390fd5b80915050919050565b6060600960008373ffffffffffffffffffffffffffffffffffffffff1673ffffffffffffffffffffffffffffffffffffffff16815260200190815260200160002080548060200260200160405190810160405280929190818152602001828054801561096f57602002820191906000526020600020905b81548152602001906001019080831161095b575b50505050509050919050565b60008073ffffffffffffffffffffffffffffffffffffffff168273ffffffffffffffffffffffffffffffffffffffff1614156109ec576040517f08c379a00000000000000000000000000000000000000000000000000000000081526004016109e390612780565b60405180910390fd5b600360008373ffffffffffffffffffffffffffffffffffffffff1673ffffffffffffffffffffffffffffffffffffffff168152602001908152602001600020549050919050565b610a3b611162565b73ffffffffffffffffffffffffffffffffffffffff16610a59610b8e565b73ffffffffffffffffffffffffffffffffffffffff1614610aaf576040517f08c379a0000000000000000000000000000000000000000000000000000000008152600401610aa690612800565b60405180910390fd5b610ab9600061156b565b565b6000610ac76007611223565b9050610ad36007611076565b610add8482611631565b6000604051806040016040528085815260200184815250905080600860008481526020019081526020016000206000820151816000015560208201518160010155905050600960008673ffffffffffffffffffffffffffffffffffffffff1673ffffffffffffffffffffffffffffffffffffffff1681526020019081526020016000208290806001815401808255809150506001900390600052602060002001600090919091909150555050505050565b6000600660009054906101000a900473ffffffffffffffffffffffffffffffffffffffff16905090565b606060018054610bc790612b52565b80601f0160208091040260200160405190810160405280929190818152602001828054610bf390612b52565b8015610c405780601f10610c1557610100808354040283529160200191610c40565b820191906000526020600020905b815481529060010190602001808311610c2357829003601f168201915b5050505050905090565b610c5c610c55611162565b838361164f565b5050565b60606000600960008473ffffffffffffffffffffffffffffffffffffffff1673ffffffffffffffffffffffffffffffffffffffff168152602001908152602001600020805480602002602001604051908101604052809291908181526020018280548015610ced57602002820191906000526020600020905b815481526020019060010190808311610cd9575b505050505090506000815167ffffffffffffffff811115610d1157610d10612ceb565b5b604051908082528060200260200182016040528015610d4a57816020015b610d37611d68565b815260200190600190039081610d2f5790505b50905060005b8251811015610dd65760086000848381518110610d7057610d6f612cbc565b5b6020026020010151815260200190815260200160002060405180604001604052908160008201548152602001600182015481525050828281518110610db857610db7612cbc565b5b60200260200101819052508080610dce90612bb5565b915050610d50565b508092505050919050565b610df2610dec611162565b83611231565b610e31576040517f08c379a0000000000000000000000000000000000000000000000000000000008152600401610e2890612880565b60405180910390fd5b610e3d848484846117bc565b50505050565b6060610e4e826110f6565b610e8d576040517f08c379a0000000000000000000000000000000000000000000000000000000008152600401610e8490612840565b60405180910390fd5b6000610e97611818565b90506000815111610eb75760405180602001604052806000815250610ee2565b80610ec18461182f565b604051602001610ed2929190612574565b6040516020818303038152906040525b915050919050565b6000600560008473ffffffffffffffffffffffffffffffffffffffff1673ffffffffffffffffffffffffffffffffffffffff16815260200190815260200160002060008373ffffffffffffffffffffffffffffffffffffffff1673ffffffffffffffffffffffffffffffffffffffff16815260200190815260200160002060009054906101000a900460ff16905092915050565b610f86611162565b73ffffffffffffffffffffffffffffffffffffffff16610fa4610b8e565b73ffffffffffffffffffffffffffffffffffffffff1614610ffa576040517f08c379a0000000000000000000000000000000000000000000000000000000008152600401610ff190612800565b60405180910390fd5b600073ffffffffffffffffffffffffffffffffffffffff168173ffffffffffffffffffffffffffffffffffffffff16141561106a576040517f08c379a0000000000000000000000000000000000000000000000000000000008152600401611061906126a0565b60405180910390fd5b6110738161156b565b50565b6001816000016000828254019250508190555050565b60007f01ffc9a7000000000000000000000000000000000000000000000000000000007bffffffffffffffffffffffffffffffffffffffffffffffffffffffff1916827bffffffffffffffffffffffffffffffffffffffffffffffffffffffff1916149050919050565b60008073ffffffffffffffffffffffffffffffffffffffff166002600084815260200190815260200160002060009054906101000a900473ffffffffffffffffffffffffffffffffffffffff1673ffffffffffffffffffffffffffffffffffffffff1614159050919050565b600033905090565b816004600083815260200190815260200160002060006101000a81548173ffffffffffffffffffffffffffffffffffffffff021916908373ffffffffffffffffffffffffffffffffffffffff160217905550808273ffffffffffffffffffffffffffffffffffffffff166111dd83610832565b73ffffffffffffffffffffffffffffffffffffffff167f8c5be1e5ebec7d5bd14f71427d1e84f3dd0314c0f7b2291e5b200ac8c7c3b92560405160405180910390a45050565b600081600001549050919050565b600061123c826110f6565b61127b576040517f08c379a000000000000000000000000000000000000000000000000000000000815260040161127290612740565b60405180910390fd5b600061128683610832565b90508073ffffffffffffffffffffffffffffffffffffffff168473ffffffffffffffffffffffffffffffffffffffff1614806112f557508373ffffffffffffffffffffffffffffffffffffffff166112dd8461057d565b73ffffffffffffffffffffffffffffffffffffffff16145b8061130657506113058185610eea565b5b91505092915050565b8273ffffffffffffffffffffffffffffffffffffffff1661132f82610832565b73ffffffffffffffffffffffffffffffffffffffff1614611385576040517f08c379a000000000000000000000000000000000000000000000000000000000815260040161137c90612820565b60405180910390fd5b600073ffffffffffffffffffffffffffffffffffffffff168273ffffffffffffffffffffffffffffffffffffffff1614156113f5576040517f08c379a00000000000000000000000000000000000000000000000000000000081526004016113ec90612700565b60405180910390fd5b611400838383611990565b61140b60008261116a565b6001600360008573ffffffffffffffffffffffffffffffffffffffff1673ffffffffffffffffffffffffffffffffffffffff168152602001908152602001600020600082825461145b9190612a68565b925050819055506001600360008473ffffffffffffffffffffffffffffffffffffffff1673ffffffffffffffffffffffffffffffffffffffff16815260200190815260200160002060008282546114b291906129e1565b92505081905550816002600083815260200190815260200160002060006101000a81548173ffffffffffffffffffffffffffffffffffffffff021916908373ffffffffffffffffffffffffffffffffffffffff160217905550808273ffffffffffffffffffffffffffffffffffffffff168473ffffffffffffffffffffffffffffffffffffffff167fddf252ad1be2c89b69c2b068fc378daa952ba7f163c4a11628f55a4df523b3ef60405160405180910390a4505050565b6000600660009054906101000a900473ffffffffffffffffffffffffffffffffffffffff16905081600660006101000a81548173ffffffffffffffffffffffffffffffffffffffff021916908373ffffffffffffffffffffffffffffffffffffffff1602179055508173ffffffffffffffffffffffffffffffffffffffff168173ffffffffffffffffffffffffffffffffffffffff167f8be0079c531659141344cd1fd0a4f28419497f9722a3daafe3b4186f6b6457e060405160405180910390a35050565b61164b828260405180602001604052806000815250611995565b5050565b8173ffffffffffffffffffffffffffffffffffffffff168373ffffffffffffffffffffffffffffffffffffffff1614156116be576040517f08c379a00000000000000000000000000000000000000000000000000000000081526004016116b590612720565b60405180910390fd5b80600560008573ffffffffffffffffffffffffffffffffffffffff1673ffffffffffffffffffffffffffffffffffffffff16815260200190815260200160002060008473ffffffffffffffffffffffffffffffffffffffff1673ffffffffffffffffffffffffffffffffffffffff16815260200190815260200160002060006101000a81548160ff0219169083151502179055508173ffffffffffffffffffffffffffffffffffffffff168373ffffffffffffffffffffffffffffffffffffffff167f17307eab39ab6107e8899845ad3d59bd9653f200f220920489ca2b5937696c31836040516117af9190612643565b60405180910390a3505050565b6117c784848461130f565b6117d3848484846119f0565b611812576040517f08c379a000000000000000000000000000000000000000000000000000000000815260040161180990612680565b60405180910390fd5b50505050565b606060405180602001604052806000815250905090565b60606000821415611877576040518060400160405280600181526020017f3000000000000000000000000000000000000000000000000000000000000000815250905061198b565b600082905060005b600082146118a957808061189290612bb5565b915050600a826118a29190612a37565b915061187f565b60008167ffffffffffffffff8111156118c5576118c4612ceb565b5b6040519080825280601f01601f1916602001820160405280156118f75781602001600182028036833780820191505090505b5090505b60008514611984576001826119109190612a68565b9150600a8561191f9190612bfe565b603061192b91906129e1565b60f81b81838151811061194157611940612cbc565b5b60200101907effffffffffffffffffffffffffffffffffffffffffffffffffffffffffffff1916908160001a905350600a8561197d9190612a37565b94506118fb565b8093505050505b919050565b505050565b61199f8383611b87565b6119ac60008484846119f0565b6119eb576040517f08c379a00000000000000000000000000000000000000000000000000000000081526004016119e290612680565b60405180910390fd5b505050565b6000611a118473ffffffffffffffffffffffffffffffffffffffff16611d55565b15611b7a578373ffffffffffffffffffffffffffffffffffffffff1663150b7a02611a3a611162565b8786866040518563ffffffff1660e01b8152600401611a5c94939291906125b3565b602060405180830381600087803b158015611a7657600080fd5b505af1925050508015611aa757506040513d601f19601f82011682018060405250810190611aa4919061209e565b60015b611b2a573d8060008114611ad7576040519150601f19603f3d011682016040523d82523d6000602084013e611adc565b606091505b50600081511415611b22576040517f08c379a0000000000000000000000000000000000000000000000000000000008152600401611b1990612680565b60405180910390fd5b805181602001fd5b63150b7a0260e01b7bffffffffffffffffffffffffffffffffffffffffffffffffffffffff1916817bffffffffffffffffffffffffffffffffffffffffffffffffffffffff191614915050611b7f565b600190505b949350505050565b600073ffffffffffffffffffffffffffffffffffffffff168273ffffffffffffffffffffffffffffffffffffffff161415611bf7576040517f08c379a0000000000000000000000000000000000000000000000000000000008152600401611bee906127c0565b60405180910390fd5b611c00816110f6565b15611c40576040517f08c379a0000000000000000000000000000000000000000000000000000000008152600401611c37906126c0565b60405180910390fd5b611c4c60008383611990565b6001600360008473ffffffffffffffffffffffffffffffffffffffff1673ffffffffffffffffffffffffffffffffffffffff1681526020019081526020016000206000828254611c9c91906129e1565b92505081905550816002600083815260200190815260200160002060006101000a81548173ffffffffffffffffffffffffffffffffffffffff021916908373ffffffffffffffffffffffffffffffffffffffff160217905550808273ffffffffffffffffffffffffffffffffffffffff16600073ffffffffffffffffffffffffffffffffffffffff167fddf252ad1be2c89b69c2b068fc378daa952ba7f163c4a11628f55a4df523b3ef60405160405180910390a45050565b600080823b905060008111915050919050565b604051806040016040528060008152602001600081525090565b6000611d95611d90846128fb565b6128d6565b905082815260208101848484011115611db157611db0612d1f565b5b611dbc848285612b10565b509392505050565b600081359050611dd3816131c0565b92915050565b600081359050611de8816131d7565b92915050565b600081359050611dfd816131ee565b92915050565b600081519050611e12816131ee565b92915050565b600082601f830112611e2d57611e2c612d1a565b5b8135611e3d848260208601611d82565b91505092915050565b600081359050611e5581613205565b92915050565b600060208284031215611e7157611e70612d29565b5b6000611e7f84828501611dc4565b91505092915050565b60008060408385031215611e9f57611e9e612d29565b5b6000611ead85828601611dc4565b9250506020611ebe85828601611dc4565b9150509250929050565b600080600060608486031215611ee157611ee0612d29565b5b6000611eef86828701611dc4565b9350506020611f0086828701611dc4565b9250506040611f1186828701611e46565b9150509250925092565b60008060008060808587031215611f3557611f34612d29565b5b6000611f4387828801611dc4565b9450506020611f5487828801611dc4565b9350506040611f6587828801611e46565b925050606085013567ffffffffffffffff811115611f8657611f85612d24565b5b611f9287828801611e18565b91505092959194509250565b60008060408385031215611fb557611fb4612d29565b5b6000611fc385828601611dc4565b9250506020611fd485828601611dd9565b9150509250929050565b60008060408385031215611ff557611ff4612d29565b5b600061200385828601611dc4565b925050602061201485828601611e46565b9150509250929050565b60008060006060848603121561203757612036612d29565b5b600061204586828701611dc4565b935050602061205686828701611e46565b925050604061206786828701611e46565b9150509250925092565b60006020828403121561208757612086612d29565b5b600061209584828501611dee565b91505092915050565b6000602082840312156120b4576120b3612d29565b5b60006120c284828501611e03565b91505092915050565b6000602082840312156120e1576120e0612d29565b5b60006120ef84828501611e46565b91505092915050565b600061210483836124f8565b60408301905092915050565b600061211c8383612556565b60208301905092915050565b61213181612a9c565b82525050565b60006121428261294c565b61214c8185612992565b93506121578361292c565b8060005b8381101561218857815161216f88826120f8565b975061217a83612978565b92505060018101905061215b565b5085935050505092915050565b60006121a082612957565b6121aa81856129a3565b93506121b58361293c565b8060005b838110156121e65781516121cd8882612110565b97506121d883612985565b9250506001810190506121b9565b5085935050505092915050565b6121fc81612aae565b82525050565b600061220d82612962565b61221781856129b4565b9350612227818560208601612b1f565b61223081612d2e565b840191505092915050565b60006122468261296d565b61225081856129c5565b9350612260818560208601612b1f565b61226981612d2e565b840191505092915050565b600061227f8261296d565b61228981856129d6565b9350612299818560208601612b1f565b80840191505092915050565b60006122b26032836129c5565b91506122bd82612d3f565b604082019050919050565b60006122d56026836129c5565b91506122e082612d8e565b604082019050919050565b60006122f8601c836129c5565b915061230382612ddd565b602082019050919050565b600061231b6012836129c5565b915061232682612e06565b602082019050919050565b600061233e6024836129c5565b915061234982612e2f565b604082019050919050565b60006123616019836129c5565b915061236c82612e7e565b602082019050919050565b6000612384602c836129c5565b915061238f82612ea7565b604082019050919050565b60006123a76038836129c5565b91506123b282612ef6565b604082019050919050565b60006123ca602a836129c5565b91506123d582612f45565b604082019050919050565b60006123ed6029836129c5565b91506123f882612f94565b604082019050919050565b60006124106020836129c5565b915061241b82612fe3565b602082019050919050565b6000612433602c836129c5565b915061243e8261300c565b604082019050919050565b60006124566020836129c5565b91506124618261305b565b602082019050919050565b60006124796029836129c5565b915061248482613084565b604082019050919050565b600061249c602f836129c5565b91506124a7826130d3565b604082019050919050565b60006124bf6021836129c5565b91506124ca82613122565b604082019050919050565b60006124e26031836129c5565b91506124ed82613171565b604082019050919050565b60408201600082015161250e6000850182612556565b5060208201516125216020850182612556565b50505050565b60408201600082015161253d6000850182612556565b5060208201516125506020850182612556565b50505050565b61255f81612b06565b82525050565b61256e81612b06565b82525050565b60006125808285612274565b915061258c8284612274565b91508190509392505050565b60006020820190506125ad6000830184612128565b92915050565b60006080820190506125c86000830187612128565b6125d56020830186612128565b6125e26040830185612565565b81810360608301526125f48184612202565b905095945050505050565b600060208201905081810360008301526126198184612137565b905092915050565b6000602082019050818103600083015261263b8184612195565b905092915050565b600060208201905061265860008301846121f3565b92915050565b60006020820190508181036000830152612678818461223b565b905092915050565b60006020820190508181036000830152612699816122a5565b9050919050565b600060208201905081810360008301526126b9816122c8565b9050919050565b600060208201905081810360008301526126d9816122eb565b9050919050565b600060208201905081810360008301526126f98161230e565b9050919050565b6000602082019050818103600083015261271981612331565b9050919050565b6000602082019050818103600083015261273981612354565b9050919050565b6000602082019050818103600083015261275981612377565b9050919050565b600060208201905081810360008301526127798161239a565b9050919050565b60006020820190508181036000830152612799816123bd565b9050919050565b600060208201905081810360008301526127b9816123e0565b9050919050565b600060208201905081810360008301526127d981612403565b9050919050565b600060208201905081810360008301526127f981612426565b9050919050565b6000602082019050818103600083015261281981612449565b9050919050565b600060208201905081810360008301526128398161246c565b9050919050565b600060208201905081810360008301526128598161248f565b9050919050565b60006020820190508181036000830152612879816124b2565b9050919050565b60006020820190508181036000830152612899816124d5565b9050919050565b60006040820190506128b56000830184612527565b92915050565b60006020820190506128d06000830184612565565b92915050565b60006128e06128f1565b90506128ec8282612b84565b919050565b6000604051905090565b600067ffffffffffffffff82111561291657612915612ceb565b5b61291f82612d2e565b9050602081019050919050565b6000819050602082019050919050565b6000819050602082019050919050565b600081519050919050565b600081519050919050565b600081519050919050565b600081519050919050565b6000602082019050919050565b6000602082019050919050565b600082825260208201905092915050565b600082825260208201905092915050565b600082825260208201905092915050565b600082825260208201905092915050565b600081905092915050565b60006129ec82612b06565b91506129f783612b06565b9250827fffffffffffffffffffffffffffffffffffffffffffffffffffffffffffffffff03821115612a2c57612a2b612c2f565b5b828201905092915050565b6000612a4282612b06565b9150612a4d83612b06565b925082612a5d57612a5c612c5e565b5b828204905092915050565b6000612a7382612b06565b9150612a7e83612b06565b925082821015612a9157612a90612c2f565b5b828203905092915050565b6000612aa782612ae6565b9050919050565b60008115159050919050565b60007fffffffff0000000000000000000000000000000000000000000000000000000082169050919050565b600073ffffffffffffffffffffffffffffffffffffffff82169050919050565b6000819050919050565b82818337600083830152505050565b60005b83811015612b3d578082015181840152602081019050612b22565b83811115612b4c576000848401525b50505050565b60006002820490506001821680612b6a57607f821691505b60208210811415612b7e57612b7d612c8d565b5b50919050565b612b8d82612d2e565b810181811067ffffffffffffffff82111715612bac57612bab612ceb565b5b80604052505050565b6000612bc082612b06565b91507fffffffffffffffffffffffffffffffffffffffffffffffffffffffffffffffff821415612bf357612bf2612c2f565b5b600182019050919050565b6000612c0982612b06565b9150612c1483612b06565b925082612c2457612c23612c5e565b5b828206905092915050565b7f4e487b7100000000000000000000000000000000000000000000000000000000600052601160045260246000fd5b7f4e487b7100000000000000000000000000000000000000000000000000000000600052601260045260246000fd5b7f4e487b7100000000000000000000000000000000000000000000000000000000600052602260045260246000fd5b7f4e487b7100000000000000000000000000000000000000000000000000000000600052603260045260246000fd5b7f4e487b7100000000000000000000000000000000000000000000000000000000600052604160045260246000fd5b600080fd5b600080fd5b600080fd5b600080fd5b6000601f19601f8301169050919050565b7f4552433732313a207472616e7366657220746f206e6f6e20455243373231526560008201527f63656976657220696d706c656d656e7465720000000000000000000000000000602082015250565b7f4f776e61626c653a206e6577206f776e657220697320746865207a65726f206160008201527f6464726573730000000000000000000000000000000000000000000000000000602082015250565b7f4552433732313a20746f6b656e20616c7265616479206d696e74656400000000600082015250565b7f746f6b656e204964206e6f742065786973740000000000000000000000000000600082015250565b7f4552433732313a207472616e7366657220746f20746865207a65726f2061646460008201527f7265737300000000000000000000000000000000000000000000000000000000602082015250565b7f4552433732313a20617070726f766520746f2063616c6c657200000000000000600082015250565b7f4552433732313a206f70657261746f7220717565727920666f72206e6f6e657860008201527f697374656e7420746f6b656e0000000000000000000000000000000000000000602082015250565b7f4552433732313a20617070726f76652063616c6c6572206973206e6f74206f7760008201527f6e6572206e6f7220617070726f76656420666f7220616c6c0000000000000000602082015250565b7f4552433732313a2062616c616e636520717565727920666f7220746865207a6560008201527f726f206164647265737300000000000000000000000000000000000000000000602082015250565b7f4552433732313a206f776e657220717565727920666f72206e6f6e657869737460008201527f656e7420746f6b656e0000000000000000000000000000000000000000000000602082015250565b7f4552433732313a206d696e7420746f20746865207a65726f2061646472657373600082015250565b7f4552433732313a20617070726f76656420717565727920666f72206e6f6e657860008201527f697374656e7420746f6b656e0000000000000000000000000000000000000000602082015250565b7f4f776e61626c653a2063616c6c6572206973206e6f7420746865206f776e6572600082015250565b7f4552433732313a207472616e73666572206f6620746f6b656e2074686174206960008201527f73206e6f74206f776e0000000000000000000000000000000000000000000000602082015250565b7f4552433732314d657461646174613a2055524920717565727920666f72206e6f60008201527f6e6578697374656e7420746f6b656e0000000000000000000000000000000000602082015250565b7f4552433732313a20617070726f76616c20746f2063757272656e74206f776e6560008201527f7200000000000000000000000000000000000000000000000000000000000000602082015250565b7f4552433732313a207472616e736665722063616c6c6572206973206e6f74206f60008201527f776e6572206e6f7220617070726f766564000000000000000000000000000000602082015250565b6131c981612a9c565b81146131d457600080fd5b50565b6131e081612aae565b81146131eb57600080fd5b50565b6131f781612aba565b811461320257600080fd5b50565b61320e81612b06565b811461321957600080fd5b5056fea2646970667358221220c748db8c94f6ddeff1a10b808d3f8385f3d0f6bffadce4662a79d9989191758464736f6c63430008050033",
  "immutableReferences": {},
  "source": "// SPDX-License-Identifier: MIT\npragma solidity ^0.8.2;\n\nimport \"@openzeppelin/contracts/token/ERC721/ERC721.sol\";\nimport \"@openzeppelin/contracts/access/Ownable.sol\";\nimport \"@openzeppelin/contracts/utils/Counters.sol\";\nimport \"./slib.sol\";\n\ncontract FundRasingShareToken is ERC721, Ownable {\n    using Counters for Counters.Counter;\n    Counters.Counter private _tokenIdCounter;\n\n    mapping(uint => SLib.ProjectShare) projectShareMap;\n    mapping(address => uint[]) ownedTokensId;\n\n    constructor() ERC721(\"FundRasingShareToken\", \"MTK\") {\n        _tokenIdCounter.increment();\n    }\n\n    function safeMintProjectShareNFT(address to, uint _projectId, uint _share) public {\n        uint256 tokenId = _tokenIdCounter.current();\n        _tokenIdCounter.increment();\n        _safeMint(to, tokenId);\n\n        // save metadata\n        SLib.ProjectShare memory newProjectShare = SLib.ProjectShare({\n            projectId:_projectId,\n            share: _share\n        });\n        projectShareMap[tokenId] = newProjectShare;\n\n        ownedTokensId[to].push(tokenId);\n    }\n\n    function getMetadataByTokenId(uint tokenId) public view returns (SLib.ProjectShare memory) {\n        require(tokenId > 0 && tokenId < _tokenIdCounter.current(), \"token Id not exist\");\n        return projectShareMap[tokenId];\n    }\n\n    function getOwnedToken(address _address) public view returns ( uint[] memory ){\n        return ownedTokensId[_address];\n    }\n\n    function getAddressTokensWithMetadata (address _address) public view returns (SLib.ProjectShare[] memory)  {\n\n        uint [] memory tokenIds = ownedTokensId[_address];\n        SLib.ProjectShare [] memory results = new SLib.ProjectShare[](tokenIds.length);\n        for(uint i = 0; i < tokenIds.length; i++){\n            results[i] = projectShareMap[tokenIds[i]];\n        }\n        return results;\n    }\n    \n}",
  "sourcePath": "/home/jacky/project/hackathon/contracts/fundRasingShareToken.sol",
  "compiler": {
    "name": "solc",
    "version": "0.8.5+commit.a4f2e591.Emscripten.clang"
  },
  "schemaVersion": "3.4.4",
  "updatedAt": "2022-01-16T02:44:15.450Z",
  "networkType": "ethereum",
  "devdoc": {
    "kind": "dev",
    "methods": {
      "approve(address,uint256)": {
        "details": "See {IERC721-approve}."
      },
      "balanceOf(address)": {
        "details": "See {IERC721-balanceOf}."
      },
      "getApproved(uint256)": {
        "details": "See {IERC721-getApproved}."
      },
      "isApprovedForAll(address,address)": {
        "details": "See {IERC721-isApprovedForAll}."
      },
      "name()": {
        "details": "See {IERC721Metadata-name}."
      },
      "owner()": {
        "details": "Returns the address of the current owner."
      },
      "ownerOf(uint256)": {
        "details": "See {IERC721-ownerOf}."
      },
      "renounceOwnership()": {
        "details": "Leaves the contract without owner. It will not be possible to call `onlyOwner` functions anymore. Can only be called by the current owner. NOTE: Renouncing ownership will leave the contract without an owner, thereby removing any functionality that is only available to the owner."
      },
      "safeTransferFrom(address,address,uint256)": {
        "details": "See {IERC721-safeTransferFrom}."
      },
      "safeTransferFrom(address,address,uint256,bytes)": {
        "details": "See {IERC721-safeTransferFrom}."
      },
      "setApprovalForAll(address,bool)": {
        "details": "See {IERC721-setApprovalForAll}."
      },
      "supportsInterface(bytes4)": {
        "details": "See {IERC165-supportsInterface}."
      },
      "symbol()": {
        "details": "See {IERC721Metadata-symbol}."
      },
      "tokenURI(uint256)": {
        "details": "See {IERC721Metadata-tokenURI}."
      },
      "transferFrom(address,address,uint256)": {
        "details": "See {IERC721-transferFrom}."
      },
      "transferOwnership(address)": {
        "details": "Transfers ownership of the contract to a new account (`newOwner`). Can only be called by the current owner."
      }
    },
    "version": 1
  },
  "userdoc": {
    "kind": "user",
    "methods": {},
    "version": 1
  }
}