{
  "contractName": "MainGame",
  "abi": [
    {
      "inputs": [
        {
          "internalType": "address",
          "name": "tokenAddress",
          "type": "address"
        },
        {
          "internalType": "address",
          "name": "_artProjectsAddress",
          "type": "address"
        },
        {
          "internalType": "address",
          "name": "_artistMembersAddress",
          "type": "address"
        },
        {
          "internalType": "address",
          "name": "_fundRasingShareTokenAddress",
          "type": "address"
        }
      ],
      "stateMutability": "nonpayable",
      "type": "constructor"
    },
    {
      "anonymous": false,
      "inputs": [
        {
          "indexed": true,
          "internalType": "address",
          "name": "previousOwner",
          "type": "address"
        },
        {
          "indexed": true,
          "internalType": "address",
          "name": "newOwner",
          "type": "address"
        }
      ],
      "name": "OwnershipTransferred",
      "type": "event"
    },
    {
      "inputs": [],
      "name": "owner",
      "outputs": [
        {
          "internalType": "address",
          "name": "",
          "type": "address"
        }
      ],
      "stateMutability": "view",
      "type": "function",
      "constant": true
    },
    {
      "inputs": [],
      "name": "renounceOwnership",
      "outputs": [],
      "stateMutability": "nonpayable",
      "type": "function"
    },
    {
      "inputs": [
        {
          "internalType": "address",
          "name": "newOwner",
          "type": "address"
        }
      ],
      "name": "transferOwnership",
      "outputs": [],
      "stateMutability": "nonpayable",
      "type": "function"
    },
    {
      "inputs": [
        {
          "internalType": "string",
          "name": "_name",
          "type": "string"
        },
        {
          "internalType": "string",
          "name": "_iconURL",
          "type": "string"
        }
      ],
      "name": "registerAsArtist",
      "outputs": [],
      "stateMutability": "nonpayable",
      "type": "function"
    },
    {
      "inputs": [
        {
          "internalType": "string",
          "name": "_name",
          "type": "string"
        },
        {
          "internalType": "string",
          "name": "_description",
          "type": "string"
        },
        {
          "internalType": "uint256",
          "name": "_targetFundingAmount",
          "type": "uint256"
        }
      ],
      "name": "kickStartProject",
      "outputs": [],
      "stateMutability": "nonpayable",
      "type": "function"
    },
    {
      "inputs": [
        {
          "internalType": "uint256",
          "name": "projectId",
          "type": "uint256"
        },
        {
          "internalType": "uint256",
          "name": "amount",
          "type": "uint256"
        }
      ],
      "name": "addFundToProject",
      "outputs": [],
      "stateMutability": "nonpayable",
      "type": "function"
    },
    {
      "inputs": [
        {
          "internalType": "uint256",
          "name": "projectId",
          "type": "uint256"
        },
        {
          "internalType": "string",
          "name": "dataURL",
          "type": "string"
        }
      ],
      "name": "endProject",
      "outputs": [],
      "stateMutability": "nonpayable",
      "type": "function"
    },
    {
      "inputs": [
        {
          "internalType": "uint256",
          "name": "projectId",
          "type": "uint256"
        }
      ],
      "name": "claimProjectShareNFT",
      "outputs": [],
      "stateMutability": "nonpayable",
      "type": "function"
    }
  ],
  "bytecode": "0x60806040523480156200001157600080fd5b506040516200165638038062001656833981810160405281019062000037919062000248565b620000576200004b6200016560201b60201c565b6200016d60201b60201c565b82600160006101000a81548173ffffffffffffffffffffffffffffffffffffffff021916908373ffffffffffffffffffffffffffffffffffffffff16021790555081600260006101000a81548173ffffffffffffffffffffffffffffffffffffffff021916908373ffffffffffffffffffffffffffffffffffffffff16021790555083600360006101000a81548173ffffffffffffffffffffffffffffffffffffffff021916908373ffffffffffffffffffffffffffffffffffffffff16021790555080600460006101000a81548173ffffffffffffffffffffffffffffffffffffffff021916908373ffffffffffffffffffffffffffffffffffffffff160217905550505050506200030d565b600033905090565b60008060009054906101000a900473ffffffffffffffffffffffffffffffffffffffff169050816000806101000a81548173ffffffffffffffffffffffffffffffffffffffff021916908373ffffffffffffffffffffffffffffffffffffffff1602179055508173ffffffffffffffffffffffffffffffffffffffff168173ffffffffffffffffffffffffffffffffffffffff167f8be0079c531659141344cd1fd0a4f28419497f9722a3daafe3b4186f6b6457e060405160405180910390a35050565b6000815190506200024281620002f3565b92915050565b60008060008060808587031215620002655762000264620002ee565b5b6000620002758782880162000231565b9450506020620002888782880162000231565b93505060406200029b8782880162000231565b9250506060620002ae8782880162000231565b91505092959194509250565b6000620002c782620002ce565b9050919050565b600073ffffffffffffffffffffffffffffffffffffffff82169050919050565b600080fd5b620002fe81620002ba565b81146200030a57600080fd5b50565b611339806200031d6000396000f3fe608060405234801561001057600080fd5b50600436106100885760003560e01c80637dac6bc21161005b5780637dac6bc2146100eb5780638da5cb5b14610107578063d6d2771d14610125578063f2fde38b1461014157610088565b8063030cb4f21461008d578063104c73cb146100a9578063701fe33e146100c5578063715018a6146100e1575b600080fd5b6100a760048036038101906100a29190610d29565b61015d565b005b6100c360048036038101906100be9190610c55565b610332565b005b6100df60048036038101906100da9190610bdd565b61047e565b005b6100e9610539565b005b61010560048036038101906101009190610ddf565b6105c1565b005b61010f610708565b60405161011c9190610ebc565b60405180910390f35b61013f600480360381019061013a9190610d83565b610731565b005b61015b60048036038101906101569190610b83565b6107c6565b005b600160009054906101000a900473ffffffffffffffffffffffffffffffffffffffff1673ffffffffffffffffffffffffffffffffffffffff1663b2c7430d82336040518363ffffffff1660e01b81526004016101ba92919061105b565b600060405180830381600087803b1580156101d457600080fd5b505af11580156101e8573d6000803e3d6000fd5b505050506000600160009054906101000a900473ffffffffffffffffffffffffffffffffffffffff1673ffffffffffffffffffffffffffffffffffffffff16630e0c785983336040518363ffffffff1660e01b815260040161024b92919061105b565b60206040518083038186803b15801561026357600080fd5b505afa158015610277573d6000803e3d6000fd5b505050506040513d601f19601f8201168201806040525081019061029b9190610d56565b9050600460009054906101000a900473ffffffffffffffffffffffffffffffffffffffff1673ffffffffffffffffffffffffffffffffffffffff16638517b4103384846040518463ffffffff1660e01b81526004016102fc93929190610fe4565b600060405180830381600087803b15801561031657600080fd5b505af115801561032a573d6000803e3d6000fd5b505050505050565b600260009054906101000a900473ffffffffffffffffffffffffffffffffffffffff1673ffffffffffffffffffffffffffffffffffffffff1663aa316fad336040518263ffffffff1660e01b815260040161038d9190610ebc565b60206040518083038186803b1580156103a557600080fd5b505afa1580156103b9573d6000803e3d6000fd5b505050506040513d601f19601f820116820180604052508101906103dd9190610bb0565b6103e657600080fd5b600160009054906101000a900473ffffffffffffffffffffffffffffffffffffffff1673ffffffffffffffffffffffffffffffffffffffff1663b06ef1b6338585856040518563ffffffff1660e01b81526004016104479493929190610f53565b600060405180830381600087803b15801561046157600080fd5b505af1158015610475573d6000803e3d6000fd5b50505050505050565b600260009054906101000a900473ffffffffffffffffffffffffffffffffffffffff1673ffffffffffffffffffffffffffffffffffffffff1663529b06d03384846040518463ffffffff1660e01b81526004016104dd93929190610f0e565b600060405180830381600087803b1580156104f757600080fd5b505af115801561050b573d6000803e3d6000fd5b505050506040513d6000823e3d601f19601f820116820180604052508101906105349190610ce0565b505050565b6105416108be565b73ffffffffffffffffffffffffffffffffffffffff1661055f610708565b73ffffffffffffffffffffffffffffffffffffffff16146105b5576040517f08c379a00000000000000000000000000000000000000000000000000000000081526004016105ac9061103b565b60405180910390fd5b6105bf60006108c6565b565b600160009054906101000a900473ffffffffffffffffffffffffffffffffffffffff1673ffffffffffffffffffffffffffffffffffffffff16633cc645658333846040518463ffffffff1660e01b815260040161062093929190611084565b600060405180830381600087803b15801561063a57600080fd5b505af115801561064e573d6000803e3d6000fd5b50505050600360009054906101000a900473ffffffffffffffffffffffffffffffffffffffff1673ffffffffffffffffffffffffffffffffffffffff166323b872dd3330846040518463ffffffff1660e01b81526004016106b193929190610ed7565b602060405180830381600087803b1580156106cb57600080fd5b505af11580156106df573d6000803e3d6000fd5b505050506040513d601f19601f820116820180604052508101906107039190610bb0565b505050565b60008060009054906101000a900473ffffffffffffffffffffffffffffffffffffffff16905090565b600160009054906101000a900473ffffffffffffffffffffffffffffffffffffffff1673ffffffffffffffffffffffffffffffffffffffff1663ca1a39193384846040518463ffffffff1660e01b815260040161079093929190610fa6565b600060405180830381600087803b1580156107aa57600080fd5b505af11580156107be573d6000803e3d6000fd5b505050505050565b6107ce6108be565b73ffffffffffffffffffffffffffffffffffffffff166107ec610708565b73ffffffffffffffffffffffffffffffffffffffff1614610842576040517f08c379a00000000000000000000000000000000000000000000000000000000081526004016108399061103b565b60405180910390fd5b600073ffffffffffffffffffffffffffffffffffffffff168173ffffffffffffffffffffffffffffffffffffffff1614156108b2576040517f08c379a00000000000000000000000000000000000000000000000000000000081526004016108a99061101b565b60405180910390fd5b6108bb816108c6565b50565b600033905090565b60008060009054906101000a900473ffffffffffffffffffffffffffffffffffffffff169050816000806101000a81548173ffffffffffffffffffffffffffffffffffffffff021916908373ffffffffffffffffffffffffffffffffffffffff1602179055508173ffffffffffffffffffffffffffffffffffffffff168173ffffffffffffffffffffffffffffffffffffffff167f8be0079c531659141344cd1fd0a4f28419497f9722a3daafe3b4186f6b6457e060405160405180910390a35050565b600061099d610998846110e0565b6110bb565b9050828152602081018484840111156109b9576109b8611226565b5b6109c4848285611175565b509392505050565b60006109df6109da846110e0565b6110bb565b9050828152602081018484840111156109fb576109fa611226565b5b610a06848285611184565b509392505050565b600081359050610a1d816112be565b92915050565b600081519050610a32816112be565b92915050565b600081519050610a47816112d5565b92915050565b600082601f830112610a6257610a61611217565b5b8135610a7284826020860161098a565b91505092915050565b600082601f830112610a9057610a8f611217565b5b8151610aa08482602086016109cc565b91505092915050565b600060808284031215610abf57610abe61121c565b5b610ac960806110bb565b90506000610ad984828501610b6e565b6000830152506020610aed84828501610a23565b602083015250604082015167ffffffffffffffff811115610b1157610b10611221565b5b610b1d84828501610a7b565b604083015250606082015167ffffffffffffffff811115610b4157610b40611221565b5b610b4d84828501610a7b565b60608301525092915050565b600081359050610b68816112ec565b92915050565b600081519050610b7d816112ec565b92915050565b600060208284031215610b9957610b98611230565b5b6000610ba784828501610a0e565b91505092915050565b600060208284031215610bc657610bc5611230565b5b6000610bd484828501610a38565b91505092915050565b60008060408385031215610bf457610bf3611230565b5b600083013567ffffffffffffffff811115610c1257610c1161122b565b5b610c1e85828601610a4d565b925050602083013567ffffffffffffffff811115610c3f57610c3e61122b565b5b610c4b85828601610a4d565b9150509250929050565b600080600060608486031215610c6e57610c6d611230565b5b600084013567ffffffffffffffff811115610c8c57610c8b61122b565b5b610c9886828701610a4d565b935050602084013567ffffffffffffffff811115610cb957610cb861122b565b5b610cc586828701610a4d565b9250506040610cd686828701610b59565b9150509250925092565b600060208284031215610cf657610cf5611230565b5b600082015167ffffffffffffffff811115610d1457610d1361122b565b5b610d2084828501610aa9565b91505092915050565b600060208284031215610d3f57610d3e611230565b5b6000610d4d84828501610b59565b91505092915050565b600060208284031215610d6c57610d6b611230565b5b6000610d7a84828501610b6e565b91505092915050565b60008060408385031215610d9a57610d99611230565b5b6000610da885828601610b59565b925050602083013567ffffffffffffffff811115610dc957610dc861122b565b5b610dd585828601610a4d565b9150509250929050565b60008060408385031215610df657610df5611230565b5b6000610e0485828601610b59565b9250506020610e1585828601610b59565b9150509250929050565b610e288161112d565b82525050565b6000610e3982611111565b610e43818561111c565b9350610e53818560208601611184565b610e5c81611235565b840191505092915050565b6000610e7460268361111c565b9150610e7f82611246565b604082019050919050565b6000610e9760208361111c565b9150610ea282611295565b602082019050919050565b610eb68161116b565b82525050565b6000602082019050610ed16000830184610e1f565b92915050565b6000606082019050610eec6000830186610e1f565b610ef96020830185610e1f565b610f066040830184610ead565b949350505050565b6000606082019050610f236000830186610e1f565b8181036020830152610f358185610e2e565b90508181036040830152610f498184610e2e565b9050949350505050565b6000608082019050610f686000830187610e1f565b8181036020830152610f7a8186610e2e565b90508181036040830152610f8e8185610e2e565b9050610f9d6060830184610ead565b95945050505050565b6000606082019050610fbb6000830186610e1f565b610fc86020830185610ead565b8181036040830152610fda8184610e2e565b9050949350505050565b6000606082019050610ff96000830186610e1f565b6110066020830185610ead565b6110136040830184610ead565b949350505050565b6000602082019050818103600083015261103481610e67565b9050919050565b6000602082019050818103600083015261105481610e8a565b9050919050565b60006040820190506110706000830185610ead565b61107d6020830184610e1f565b9392505050565b60006060820190506110996000830186610ead565b6110a66020830185610e1f565b6110b36040830184610ead565b949350505050565b60006110c56110d6565b90506110d182826111b7565b919050565b6000604051905090565b600067ffffffffffffffff8211156110fb576110fa6111e8565b5b61110482611235565b9050602081019050919050565b600081519050919050565b600082825260208201905092915050565b60006111388261114b565b9050919050565b60008115159050919050565b600073ffffffffffffffffffffffffffffffffffffffff82169050919050565b6000819050919050565b82818337600083830152505050565b60005b838110156111a2578082015181840152602081019050611187565b838111156111b1576000848401525b50505050565b6111c082611235565b810181811067ffffffffffffffff821117156111df576111de6111e8565b5b80604052505050565b7f4e487b7100000000000000000000000000000000000000000000000000000000600052604160045260246000fd5b600080fd5b600080fd5b600080fd5b600080fd5b600080fd5b600080fd5b6000601f19601f8301169050919050565b7f4f776e61626c653a206e6577206f776e657220697320746865207a65726f206160008201527f6464726573730000000000000000000000000000000000000000000000000000602082015250565b7f4f776e61626c653a2063616c6c6572206973206e6f7420746865206f776e6572600082015250565b6112c78161112d565b81146112d257600080fd5b50565b6112de8161113f565b81146112e957600080fd5b50565b6112f58161116b565b811461130057600080fd5b5056fea26469706673582212204e2b3c0e1ed6f040e09a12a9e4579562f48420fc2471674ce10288669c2423fa64736f6c63430008050033",
  "immutableReferences": {},
  "source": "// SPDX-License-Identifier: UNLICENSED\n\npragma solidity ^0.8.5;\nimport \"@openzeppelin/contracts/token/ERC20/ERC20.sol\";\nimport \"@openzeppelin/contracts/access/Ownable.sol\";\nimport \"./slib.sol\";\nimport \"./fundRasingShareToken.sol\";\nimport \"./platformToken.sol\";\n\ncontract ArtistMembers is Ownable{\n\n    mapping(address => bool) private artistExist; //check projectId return bool\n    mapping(address => uint) private artistIdIndex; //check projectId return bool\n    SLib.Artist[] private artistList;\n    uint private artistCount;\n\n    modifier isArtistIdExist(uint id) {\n        require(id > 0 && id <= artistCount, \"artist Id must less than artistCount\");\n        _;\n    }\n\n    modifier isArtistAddressExist(address _address) {\n        require(artistExist[_address], \"artist Id must less than artistCount\");\n        _;\n    }\n\n    event ArtistAdd(address indexed artistAddress);\n\n    constructor (){\n        artistCount = 0;\n    }\n\n    function addArtist (address _address, string memory _name, string memory _iconURL) external  returns (SLib.Artist memory artist){\n        require(!artistExist[_address], \"Caller is artist already\");\n        artistCount ++;\n        artistExist[_address] = true;\n        SLib.Artist memory newArtist = SLib.Artist({\n            id:artistCount,\n            artistAddress:_address,\n            name:_name,\n            iconURL:_iconURL\n        });\n        artistList.push(newArtist);\n        artistIdIndex[_address] = artistCount - 1;\n\n        // omit event\n\n        return newArtist;\n    }\n\n    function checkIsArtistExist(address _address) public view returns (bool) {\n        return artistExist[_address];\n    }\n\n    function getArtistSize() public view returns (uint) {\n        return artistCount;\n    }\n\n    function getArtistById(uint id) isArtistIdExist(id) public view returns (SLib.Artist memory artist){\n        return artistList[id - 1];\n    }\n\n    function getArtistByAddress(address _address) isArtistAddressExist(_address) public view returns (SLib.Artist memory artist){\n        uint artistIndex = artistIdIndex[_address];\n        return artistList[artistIndex];\n    }\n\n    function getAllArtists ()public view returns (SLib.Artist [] memory){\n        return artistList;\n    }\n}\n\n\n\ncontract ArtProjects is Ownable{\n\n    mapping(uint => bool) private projectExist; //check projectId return bool\n    SLib.Project[] private projectList;\n    uint private projectCount = 0;\n    mapping(address => uint[]) artistProjectList;\n\n    // projectId -> investor address -> invest amount\n    mapping(uint => mapping(address => uint)) projectAddressFundAmount;\n    mapping(uint => address[] ) projectFunderList;\n    mapping(address => uint[]) investerFundedProjectList;\n    mapping(uint => mapping(address => bool)) projectShareNFTClaimed;\n\n    modifier isProjectIdExist(uint id) {\n        require(id > 0 && id <= projectCount, \"project Id must less than projectCount\");\n        _;\n    }\n\n    constructor(){\n\n    }\n\n    function addProject(address _artistAddress, string memory _name, string memory _description, uint _targetFundingAmount) external {\n        \n        projectCount ++;\n        SLib.Project memory newProject = SLib.Project({\n            id:projectCount,\n            artistAddress: _artistAddress,\n            name:_name,\n            description:_description,\n            targetFundingAmount:_targetFundingAmount,\n            currentFundingAmount: 0,\n            totalFunder:0,\n            isOpen:true,\n            dataURL:\"\"\n        });\n        projectList.push(newProject);\n        artistProjectList[_artistAddress].push(newProject.id);\n        projectExist[projectCount] = true;\n    }\n\n    function addFunderAmount(uint projectId, address _investorAddress, uint amount) isProjectIdExist(projectId) external {\n        SLib.Project storage project = projectList[projectId - 1];\n\n        // block if not open\n        require(project.isOpen, \"Project fund rasing is closed\") ;\n\n        project.currentFundingAmount += amount;\n\n        // add new investor record\n        if(projectAddressFundAmount[projectId][_investorAddress] == 0){\n            // if no invest record, add to project list/ investor list\n            project.totalFunder += 1; //add a new funder\n            projectFunderList[projectId].push(_investorAddress);\n            investerFundedProjectList[_investorAddress].push(projectId);\n        }\n        // add fund amount\n        projectAddressFundAmount[projectId][_investorAddress] += amount;\n    }\n\n    function endProject(address _address, uint projectId, string memory dataURL)isProjectIdExist(projectId) external {\n        SLib.Project storage project = projectList[projectId - 1];\n        require(project.isOpen, \"Project fund rasing is closed\") ;\n        require(project.artistAddress == _address, \"Only project owner can close\") ;\n        project.isOpen = false;\n        project.dataURL = dataURL;\n    }\n\n    function checkIsAddressAbleToMint(uint projectId, address _address) isProjectIdExist(projectId) public view  returns (bool){\n        SLib.Project memory project = getProjectById(projectId);\n        uint fundAmount = projectAddressFundAmount[projectId][_address];\n        if(fundAmount <= 0){\n            return false;\n        }\n        if(project.isOpen){\n            return false;\n        }\n        if(projectShareNFTClaimed[projectId][_address]){\n            return false;\n        }\n        return true;\n    }\n\n    function getAddressShareInProject(uint projectId, address _address) isProjectIdExist(projectId) public view  returns (uint){\n        SLib.Project memory project = getProjectById(projectId);\n        uint fundAmount = projectAddressFundAmount[projectId][_address];\n        if(fundAmount <= 0){\n            return 0;\n        }\n        uint share = fundAmount / project.currentFundingAmount;\n        return share;\n    }\n\n    function setProjectShareNFTClaimed (uint projectId, address _address) isProjectIdExist(projectId) public {\n        require(checkIsAddressAbleToMint(projectId, _address), \"Address Not able to claim share NFT\");\n        projectShareNFTClaimed[projectId][_address] = true;\n    }\n\n    function getProjectFunderListByProjectId (uint projectId) isProjectIdExist(projectId) public view returns (address [] memory){\n        return projectFunderList[projectId];\n    }\n\n    function getFundedProjectByAddress (address _address)public view returns (uint [] memory){\n        return investerFundedProjectList[_address];\n    }\n\n    function getFundAmountsByProjectId (uint projectId)isProjectIdExist(projectId) public view returns (SLib.ProjectAddressFund [] memory) {\n        address [] memory funderList = projectFunderList[projectId];\n        SLib.ProjectAddressFund [] memory results = new SLib.ProjectAddressFund[](funderList.length);\n        for(uint i = 0; i < funderList.length; i++){\n            uint fundAmount = projectAddressFundAmount[projectId][ funderList[i] ];\n            results[i] = SLib.ProjectAddressFund({\n                funderAddress: funderList[i],\n                amount:fundAmount\n            });\n        }\n        return results;\n    }\n\n    function getAllProjects ()public view returns (SLib.Project [] memory){\n        return projectList;\n    }\n\n    function checkIsProjectExist(uint id) public view returns (bool) {\n        return projectExist[id];\n    }\n\n    function getProjectSize() public view returns (uint) {\n        return projectCount;\n    }\n\n    function getProjectById(uint id) isProjectIdExist(id) public view returns (SLib.Project memory project){\n        return projectList[id - 1];\n    }\n}\n\n\ncontract MainGame is Ownable{\n\n    ArtProjects artProjects;\n    ArtistMembers artistMembers;\n    PlatformToken platformToken;\n    FundRasingShareToken fundRasingShareToken;\n\n    constructor(address tokenAddress, address _artProjectsAddress, address _artistMembersAddress, address _fundRasingShareTokenAddress){\n        artProjects = ArtProjects(_artProjectsAddress);\n        artistMembers = ArtistMembers(_artistMembersAddress);\n        platformToken = PlatformToken(tokenAddress);\n        fundRasingShareToken = FundRasingShareToken(_fundRasingShareTokenAddress);\n    }\n\n    function registerAsArtist(string memory _name, string memory _iconURL) public {\n        artistMembers.addArtist(msg.sender, _name, _iconURL);\n        // address _address, string memory _name, string memory _iconURL\n    }\n\n    function kickStartProject(string memory _name, string memory _description, uint _targetFundingAmount) public{\n        require(artistMembers.checkIsArtistExist(msg.sender));\n        // address _artistAddress, string memory _name, string memory _description, uint _targetFundingAmount\n        artProjects.addProject(msg.sender, _name, _description, _targetFundingAmount);\n    }\n\n    function addFundToProject (uint projectId, uint amount) public {\n        artProjects.addFunderAmount(projectId, msg.sender, amount);\n        // address sender,\n        // address recipient,\n        // uint256 amount\n        platformToken.transferFrom (msg.sender, address(this), amount);\n    }\n\n    function endProject (uint projectId, string memory dataURL) public {\n        artProjects.endProject(msg.sender, projectId, dataURL);\n    }\n\n    function claimProjectShareNFT(uint projectId) public{\n        artProjects.setProjectShareNFTClaimed(projectId, msg.sender);\n        uint share = artProjects.getAddressShareInProject(projectId, msg.sender);\n        fundRasingShareToken.safeMintProjectShareNFT(msg.sender, projectId, share);\n    }\n\n\n}\n",
  "sourcePath": "/home/jacky/project/hackathon/contracts/artProject.sol",
  "compiler": {
    "name": "solc",
    "version": "0.8.5+commit.a4f2e591.Emscripten.clang"
  },
  "schemaVersion": "3.4.4",
  "updatedAt": "2022-01-16T02:44:15.490Z",
  "networkType": "ethereum",
  "devdoc": {
    "kind": "dev",
    "methods": {
      "owner()": {
        "details": "Returns the address of the current owner."
      },
      "renounceOwnership()": {
        "details": "Leaves the contract without owner. It will not be possible to call `onlyOwner` functions anymore. Can only be called by the current owner. NOTE: Renouncing ownership will leave the contract without an owner, thereby removing any functionality that is only available to the owner."
      },
      "transferOwnership(address)": {
        "details": "Transfers ownership of the contract to a new account (`newOwner`). Can only be called by the current owner."
      }
    },
    "version": 1
  },
  "userdoc": {
    "kind": "user",
    "methods": {},
    "version": 1
  }
}